{
  "_format": "hh-sol-artifact-1",
  "contractName": "BananaToken",
  "sourceName": "contracts/BananaToken.sol",
  "abi": [
    {
      "inputs": [
        {
          "internalType": "uint256",
          "name": "cap",
          "type": "uint256"
        },
        {
          "internalType": "uint256",
          "name": "reward",
          "type": "uint256"
        }
      ],
      "stateMutability": "nonpayable",
      "type": "constructor"
    },
    {
      "anonymous": false,
      "inputs": [
        {
          "indexed": true,
          "internalType": "address",
          "name": "owner",
          "type": "address"
        },
        {
          "indexed": true,
          "internalType": "address",
          "name": "spender",
          "type": "address"
        },
        {
          "indexed": false,
          "internalType": "uint256",
          "name": "value",
          "type": "uint256"
        }
      ],
      "name": "Approval",
      "type": "event"
    },
    {
      "anonymous": false,
      "inputs": [
        {
          "indexed": true,
          "internalType": "address",
          "name": "from",
          "type": "address"
        },
        {
          "indexed": true,
          "internalType": "address",
          "name": "to",
          "type": "address"
        },
        {
          "indexed": false,
          "internalType": "uint256",
          "name": "value",
          "type": "uint256"
        }
      ],
      "name": "Transfer",
      "type": "event"
    },
    {
      "inputs": [
        {
          "internalType": "address",
          "name": "owner",
          "type": "address"
        },
        {
          "internalType": "address",
          "name": "spender",
          "type": "address"
        }
      ],
      "name": "allowance",
      "outputs": [
        {
          "internalType": "uint256",
          "name": "",
          "type": "uint256"
        }
      ],
      "stateMutability": "view",
      "type": "function"
    },
    {
      "inputs": [
        {
          "internalType": "address",
          "name": "spender",
          "type": "address"
        },
        {
          "internalType": "uint256",
          "name": "amount",
          "type": "uint256"
        }
      ],
      "name": "approve",
      "outputs": [
        {
          "internalType": "bool",
          "name": "",
          "type": "bool"
        }
      ],
      "stateMutability": "nonpayable",
      "type": "function"
    },
    {
      "inputs": [
        {
          "internalType": "address",
          "name": "account",
          "type": "address"
        }
      ],
      "name": "balanceOf",
      "outputs": [
        {
          "internalType": "uint256",
          "name": "",
          "type": "uint256"
        }
      ],
      "stateMutability": "view",
      "type": "function"
    },
    {
      "inputs": [],
      "name": "blockReward",
      "outputs": [
        {
          "internalType": "uint256",
          "name": "",
          "type": "uint256"
        }
      ],
      "stateMutability": "view",
      "type": "function"
    },
    {
      "inputs": [
        {
          "internalType": "uint256",
          "name": "amount",
          "type": "uint256"
        }
      ],
      "name": "burn",
      "outputs": [],
      "stateMutability": "nonpayable",
      "type": "function"
    },
    {
      "inputs": [
        {
          "internalType": "address",
          "name": "account",
          "type": "address"
        },
        {
          "internalType": "uint256",
          "name": "amount",
          "type": "uint256"
        }
      ],
      "name": "burnFrom",
      "outputs": [],
      "stateMutability": "nonpayable",
      "type": "function"
    },
    {
      "inputs": [],
      "name": "cap",
      "outputs": [
        {
          "internalType": "uint256",
          "name": "",
          "type": "uint256"
        }
      ],
      "stateMutability": "view",
      "type": "function"
    },
    {
      "inputs": [],
      "name": "decimals",
      "outputs": [
        {
          "internalType": "uint8",
          "name": "",
          "type": "uint8"
        }
      ],
      "stateMutability": "view",
      "type": "function"
    },
    {
      "inputs": [
        {
          "internalType": "address",
          "name": "spender",
          "type": "address"
        },
        {
          "internalType": "uint256",
          "name": "subtractedValue",
          "type": "uint256"
        }
      ],
      "name": "decreaseAllowance",
      "outputs": [
        {
          "internalType": "bool",
          "name": "",
          "type": "bool"
        }
      ],
      "stateMutability": "nonpayable",
      "type": "function"
    },
    {
      "inputs": [],
      "name": "destroy",
      "outputs": [],
      "stateMutability": "nonpayable",
      "type": "function"
    },
    {
      "inputs": [
        {
          "internalType": "address",
          "name": "spender",
          "type": "address"
        },
        {
          "internalType": "uint256",
          "name": "addedValue",
          "type": "uint256"
        }
      ],
      "name": "increaseAllowance",
      "outputs": [
        {
          "internalType": "bool",
          "name": "",
          "type": "bool"
        }
      ],
      "stateMutability": "nonpayable",
      "type": "function"
    },
    {
      "inputs": [],
      "name": "name",
      "outputs": [
        {
          "internalType": "string",
          "name": "",
          "type": "string"
        }
      ],
      "stateMutability": "view",
      "type": "function"
    },
    {
      "inputs": [],
      "name": "owner",
      "outputs": [
        {
          "internalType": "address payable",
          "name": "",
          "type": "address"
        }
      ],
      "stateMutability": "view",
      "type": "function"
    },
    {
      "inputs": [
        {
          "internalType": "uint256",
          "name": "reward",
          "type": "uint256"
        }
      ],
      "name": "setBlockReward",
      "outputs": [],
      "stateMutability": "nonpayable",
      "type": "function"
    },
    {
      "inputs": [],
      "name": "symbol",
      "outputs": [
        {
          "internalType": "string",
          "name": "",
          "type": "string"
        }
      ],
      "stateMutability": "view",
      "type": "function"
    },
    {
      "inputs": [],
      "name": "totalSupply",
      "outputs": [
        {
          "internalType": "uint256",
          "name": "",
          "type": "uint256"
        }
      ],
      "stateMutability": "view",
      "type": "function"
    },
    {
      "inputs": [
        {
          "internalType": "address",
          "name": "to",
          "type": "address"
        },
        {
          "internalType": "uint256",
          "name": "amount",
          "type": "uint256"
        }
      ],
      "name": "transfer",
      "outputs": [
        {
          "internalType": "bool",
          "name": "",
          "type": "bool"
        }
      ],
      "stateMutability": "nonpayable",
      "type": "function"
    },
    {
      "inputs": [
        {
          "internalType": "address",
          "name": "from",
          "type": "address"
        },
        {
          "internalType": "address",
          "name": "to",
          "type": "address"
        },
        {
          "internalType": "uint256",
          "name": "amount",
          "type": "uint256"
        }
      ],
      "name": "transferFrom",
      "outputs": [
        {
          "internalType": "bool",
          "name": "",
          "type": "bool"
        }
      ],
      "stateMutability": "nonpayable",
      "type": "function"
    }
  ],
  "bytecode": "0x60a06040523480156200001157600080fd5b5060405162002cee38038062002cee83398181016040528101906200003791906200060e565b620000476200021f60201b60201c565b600a620000559190620007e5565b8262000062919062000836565b6040518060400160405280600a81526020017f42616e616e6153776170000000000000000000000000000000000000000000008152506040518060400160405280600481526020017f4e414e41000000000000000000000000000000000000000000000000000000008152508160039081620000df919062000af1565b508060049081620000f1919062000af1565b505050600081116200013a576040517f08c379a0000000000000000000000000000000000000000000000000000000008152600401620001319062000c39565b60405180910390fd5b80608081815250505033600560006101000a81548173ffffffffffffffffffffffffffffffffffffffff021916908373ffffffffffffffffffffffffffffffffffffffff160217905550620001e6600560009054906101000a900473ffffffffffffffffffffffffffffffffffffffff16620001bb6200021f60201b60201c565b600a620001c99190620007e5565b6302faf080620001da919062000836565b6200022860201b60201c565b620001f66200021f60201b60201c565b600a620002049190620007e5565b8162000211919062000836565b600681905550505062000da8565b60006012905090565b62000238620002b960201b60201c565b816200024e620002c360201b620004561760201c565b6200025a919062000c5b565b11156200029e576040517f08c379a0000000000000000000000000000000000000000000000000000000008152600401620002959062000ce6565b60405180910390fd5b620002b58282620002cd60201b620008cf1760201c565b5050565b6000608051905090565b6000600254905090565b620002dd620002b960201b60201c565b81620002f3620002c360201b620004561760201c565b620002ff919062000c5b565b111562000343576040517f08c379a00000000000000000000000000000000000000000000000000000000081526004016200033a9062000ce6565b60405180910390fd5b6200035a82826200035e60201b620009391760201c565b5050565b600073ffffffffffffffffffffffffffffffffffffffff168273ffffffffffffffffffffffffffffffffffffffff1603620003d0576040517f08c379a0000000000000000000000000000000000000000000000000000000008152600401620003c79062000d58565b60405180910390fd5b620003e460008383620004d660201b60201c565b8060026000828254620003f8919062000c5b565b92505081905550806000808473ffffffffffffffffffffffffffffffffffffffff1673ffffffffffffffffffffffffffffffffffffffff16815260200190815260200160002060008282546200044f919062000c5b565b925050819055508173ffffffffffffffffffffffffffffffffffffffff16600073ffffffffffffffffffffffffffffffffffffffff167fddf252ad1be2c89b69c2b068fc378daa952ba7f163c4a11628f55a4df523b3ef83604051620004b6919062000d8b565b60405180910390a3620004d260008383620005ae60201b60201c565b5050565b600073ffffffffffffffffffffffffffffffffffffffff168373ffffffffffffffffffffffffffffffffffffffff16141580156200054057504173ffffffffffffffffffffffffffffffffffffffff168273ffffffffffffffffffffffffffffffffffffffff1614155b80156200057a5750600073ffffffffffffffffffffffffffffffffffffffff164173ffffffffffffffffffffffffffffffffffffffff1614155b15620005915762000590620005b360201b60201c565b5b620005a9838383620005c960201b62000a981760201c565b505050565b505050565b620005c7416006546200022860201b60201c565b565b505050565b600080fd5b6000819050919050565b620005e881620005d3565b8114620005f457600080fd5b50565b6000815190506200060881620005dd565b92915050565b60008060408385031215620006285762000627620005ce565b5b60006200063885828601620005f7565b92505060206200064b85828601620005f7565b9150509250929050565b7f4e487b7100000000000000000000000000000000000000000000000000000000600052601160045260246000fd5b60008160011c9050919050565b6000808291508390505b6001851115620006e357808604811115620006bb57620006ba62000655565b5b6001851615620006cb5780820291505b8081029050620006db8562000684565b94506200069b565b94509492505050565b600082620006fe5760019050620007d1565b816200070e5760009050620007d1565b8160018114620007275760028114620007325762000768565b6001915050620007d1565b60ff84111562000747576200074662000655565b5b8360020a91508482111562000761576200076062000655565b5b50620007d1565b5060208310610133831016604e8410600b8410161715620007a25782820a9050838111156200079c576200079b62000655565b5b620007d1565b620007b1848484600162000691565b92509050818404811115620007cb57620007ca62000655565b5b81810290505b9392505050565b600060ff82169050919050565b6000620007f282620005d3565b9150620007ff83620007d8565b92506200082e7fffffffffffffffffffffffffffffffffffffffffffffffffffffffffffffffff8484620006ec565b905092915050565b60006200084382620005d3565b91506200085083620005d3565b92508282026200086081620005d3565b915082820484148315176200087a576200087962000655565b5b5092915050565b600081519050919050565b7f4e487b7100000000000000000000000000000000000000000000000000000000600052604160045260246000fd5b7f4e487b7100000000000000000000000000000000000000000000000000000000600052602260045260246000fd5b600060028204905060018216806200090357607f821691505b602082108103620009195762000918620008bb565b5b50919050565b60008190508160005260206000209050919050565b60006020601f8301049050919050565b600082821b905092915050565b600060088302620009837fffffffffffffffffffffffffffffffffffffffffffffffffffffffffffffffff8262000944565b6200098f868362000944565b95508019841693508086168417925050509392505050565b6000819050919050565b6000620009d2620009cc620009c684620005d3565b620009a7565b620005d3565b9050919050565b6000819050919050565b620009ee83620009b1565b62000a06620009fd82620009d9565b84845462000951565b825550505050565b600090565b62000a1d62000a0e565b62000a2a818484620009e3565b505050565b5b8181101562000a525762000a4660008262000a13565b60018101905062000a30565b5050565b601f82111562000aa15762000a6b816200091f565b62000a768462000934565b8101602085101562000a86578190505b62000a9e62000a958562000934565b83018262000a2f565b50505b505050565b600082821c905092915050565b600062000ac66000198460080262000aa6565b1980831691505092915050565b600062000ae1838362000ab3565b9150826002028217905092915050565b62000afc8262000881565b67ffffffffffffffff81111562000b185762000b176200088c565b5b62000b248254620008ea565b62000b3182828562000a56565b600060209050601f83116001811462000b69576000841562000b54578287015190505b62000b60858262000ad3565b86555062000bd0565b601f19841662000b79866200091f565b60005b8281101562000ba35784890151825560018201915060208501945060208101905062000b7c565b8683101562000bc3578489015162000bbf601f89168262000ab3565b8355505b6001600288020188555050505b505050505050565b600082825260208201905092915050565b7f45524332304361707065643a2063617020697320300000000000000000000000600082015250565b600062000c2160158362000bd8565b915062000c2e8262000be9565b602082019050919050565b6000602082019050818103600083015262000c548162000c12565b9050919050565b600062000c6882620005d3565b915062000c7583620005d3565b925082820190508082111562000c905762000c8f62000655565b5b92915050565b7f45524332304361707065643a2063617020657863656564656400000000000000600082015250565b600062000cce60198362000bd8565b915062000cdb8262000c96565b602082019050919050565b6000602082019050818103600083015262000d018162000cbf565b9050919050565b7f45524332303a206d696e7420746f20746865207a65726f206164647265737300600082015250565b600062000d40601f8362000bd8565b915062000d4d8262000d08565b602082019050919050565b6000602082019050818103600083015262000d738162000d31565b9050919050565b62000d8581620005d3565b82525050565b600060208201905062000da2600083018462000d7a565b92915050565b608051611f2a62000dc460003960006105540152611f2a6000f3fe608060405234801561001057600080fd5b50600436106101165760003560e01c806342966c68116100a25780638da5cb5b116100715780638da5cb5b146102cf57806395d89b41146102ed578063a457c2d71461030b578063a9059cbb1461033b578063dd62ed3e1461036b57610116565b806342966c681461025d57806370a082311461027957806379cc6790146102a957806383197ef0146102c557610116565b80631a18e707116100e95780631a18e707146101a557806323b872dd146101c1578063313ce567146101f1578063355274ea1461020f578063395093511461022d57610116565b806306fdde031461011b578063095ea7b3146101395780630ac168a11461016957806318160ddd14610187575b600080fd5b61012361039b565b604051610130919061131c565b60405180910390f35b610153600480360381019061014e91906113d7565b61042d565b6040516101609190611432565b60405180910390f35b610171610450565b60405161017e919061145c565b60405180910390f35b61018f610456565b60405161019c919061145c565b60405180910390f35b6101bf60048036038101906101ba9190611477565b610460565b005b6101db60048036038101906101d691906114a4565b610518565b6040516101e89190611432565b60405180910390f35b6101f9610547565b6040516102069190611513565b60405180910390f35b610217610550565b604051610224919061145c565b60405180910390f35b610247600480360381019061024291906113d7565b610578565b6040516102549190611432565b60405180910390f35b61027760048036038101906102729190611477565b6105af565b005b610293600480360381019061028e919061152e565b6105c3565b6040516102a0919061145c565b60405180910390f35b6102c360048036038101906102be91906113d7565b61060b565b005b6102cd61062b565b005b6102d76106f6565b6040516102e4919061157c565b60405180910390f35b6102f561071c565b604051610302919061131c565b60405180910390f35b610325600480360381019061032091906113d7565b6107ae565b6040516103329190611432565b60405180910390f35b610355600480360381019061035091906113d7565b610825565b6040516103629190611432565b60405180910390f35b61038560048036038101906103809190611597565b610848565b604051610392919061145c565b60405180910390f35b6060600380546103aa90611606565b80601f01602080910402602001604051908101604052809291908181526020018280546103d690611606565b80156104235780601f106103f857610100808354040283529160200191610423565b820191906000526020600020905b81548152906001019060200180831161040657829003601f168201915b5050505050905090565b600080610438610a9d565b9050610445818585610aa5565b600191505092915050565b60065481565b6000600254905090565b600560009054906101000a900473ffffffffffffffffffffffffffffffffffffffff1673ffffffffffffffffffffffffffffffffffffffff163373ffffffffffffffffffffffffffffffffffffffff16146104f0576040517f08c379a00000000000000000000000000000000000000000000000000000000081526004016104e7906116a9565b60405180910390fd5b6104f8610547565b600a610504919061182b565b8161050f9190611876565b60068190555050565b600080610523610a9d565b9050610530858285610c6e565b61053b858585610cfa565b60019150509392505050565b60006012905090565b60007f0000000000000000000000000000000000000000000000000000000000000000905090565b600080610583610a9d565b90506105a48185856105958589610848565b61059f91906118b8565b610aa5565b600191505092915050565b6105c06105ba610a9d565b82610f79565b50565b60008060008373ffffffffffffffffffffffffffffffffffffffff1673ffffffffffffffffffffffffffffffffffffffff168152602001908152602001600020549050919050565b61061d82610617610a9d565b83610c6e565b6106278282610f79565b5050565b600560009054906101000a900473ffffffffffffffffffffffffffffffffffffffff1673ffffffffffffffffffffffffffffffffffffffff163373ffffffffffffffffffffffffffffffffffffffff16146106bb576040517f08c379a00000000000000000000000000000000000000000000000000000000081526004016106b2906116a9565b60405180910390fd5b600560009054906101000a900473ffffffffffffffffffffffffffffffffffffffff1673ffffffffffffffffffffffffffffffffffffffff16ff5b600560009054906101000a900473ffffffffffffffffffffffffffffffffffffffff1681565b60606004805461072b90611606565b80601f016020809104026020016040519081016040528092919081815260200182805461075790611606565b80156107a45780601f10610779576101008083540402835291602001916107a4565b820191906000526020600020905b81548152906001019060200180831161078757829003601f168201915b5050505050905090565b6000806107b9610a9d565b905060006107c78286610848565b90508381101561080c576040517f08c379a00000000000000000000000000000000000000000000000000000000081526004016108039061195e565b60405180910390fd5b6108198286868403610aa5565b60019250505092915050565b600080610830610a9d565b905061083d818585610cfa565b600191505092915050565b6000600160008473ffffffffffffffffffffffffffffffffffffffff1673ffffffffffffffffffffffffffffffffffffffff16815260200190815260200160002060008373ffffffffffffffffffffffffffffffffffffffff1673ffffffffffffffffffffffffffffffffffffffff16815260200190815260200160002054905092915050565b6108d7610550565b816108e0610456565b6108ea91906118b8565b111561092b576040517f08c379a0000000000000000000000000000000000000000000000000000000008152600401610922906119ca565b60405180910390fd5b6109358282610939565b5050565b600073ffffffffffffffffffffffffffffffffffffffff168273ffffffffffffffffffffffffffffffffffffffff16036109a8576040517f08c379a000000000000000000000000000000000000000000000000000000000815260040161099f90611a36565b60405180910390fd5b6109b46000838361114f565b80600260008282546109c691906118b8565b92505081905550806000808473ffffffffffffffffffffffffffffffffffffffff1673ffffffffffffffffffffffffffffffffffffffff1681526020019081526020016000206000828254610a1b91906118b8565b925050819055508173ffffffffffffffffffffffffffffffffffffffff16600073ffffffffffffffffffffffffffffffffffffffff167fddf252ad1be2c89b69c2b068fc378daa952ba7f163c4a11628f55a4df523b3ef83604051610a80919061145c565b60405180910390a3610a946000838361120f565b5050565b505050565b600033905090565b600073ffffffffffffffffffffffffffffffffffffffff168373ffffffffffffffffffffffffffffffffffffffff1603610b14576040517f08c379a0000000000000000000000000000000000000000000000000000000008152600401610b0b90611ac8565b60405180910390fd5b600073ffffffffffffffffffffffffffffffffffffffff168273ffffffffffffffffffffffffffffffffffffffff1603610b83576040517f08c379a0000000000000000000000000000000000000000000000000000000008152600401610b7a90611b5a565b60405180910390fd5b80600160008573ffffffffffffffffffffffffffffffffffffffff1673ffffffffffffffffffffffffffffffffffffffff16815260200190815260200160002060008473ffffffffffffffffffffffffffffffffffffffff1673ffffffffffffffffffffffffffffffffffffffff168152602001908152602001600020819055508173ffffffffffffffffffffffffffffffffffffffff168373ffffffffffffffffffffffffffffffffffffffff167f8c5be1e5ebec7d5bd14f71427d1e84f3dd0314c0f7b2291e5b200ac8c7c3b92583604051610c61919061145c565b60405180910390a3505050565b6000610c7a8484610848565b90507fffffffffffffffffffffffffffffffffffffffffffffffffffffffffffffffff8114610cf45781811015610ce6576040517f08c379a0000000000000000000000000000000000000000000000000000000008152600401610cdd90611bc6565b60405180910390fd5b610cf38484848403610aa5565b5b50505050565b600073ffffffffffffffffffffffffffffffffffffffff168373ffffffffffffffffffffffffffffffffffffffff1603610d69576040517f08c379a0000000000000000000000000000000000000000000000000000000008152600401610d6090611c58565b60405180910390fd5b600073ffffffffffffffffffffffffffffffffffffffff168273ffffffffffffffffffffffffffffffffffffffff1603610dd8576040517f08c379a0000000000000000000000000000000000000000000000000000000008152600401610dcf90611cea565b60405180910390fd5b610de383838361114f565b60008060008573ffffffffffffffffffffffffffffffffffffffff1673ffffffffffffffffffffffffffffffffffffffff16815260200190815260200160002054905081811015610e69576040517f08c379a0000000000000000000000000000000000000000000000000000000008152600401610e6090611d7c565b60405180910390fd5b8181036000808673ffffffffffffffffffffffffffffffffffffffff1673ffffffffffffffffffffffffffffffffffffffff16815260200190815260200160002081905550816000808573ffffffffffffffffffffffffffffffffffffffff1673ffffffffffffffffffffffffffffffffffffffff1681526020019081526020016000206000828254610efc91906118b8565b925050819055508273ffffffffffffffffffffffffffffffffffffffff168473ffffffffffffffffffffffffffffffffffffffff167fddf252ad1be2c89b69c2b068fc378daa952ba7f163c4a11628f55a4df523b3ef84604051610f60919061145c565b60405180910390a3610f7384848461120f565b50505050565b600073ffffffffffffffffffffffffffffffffffffffff168273ffffffffffffffffffffffffffffffffffffffff1603610fe8576040517f08c379a0000000000000000000000000000000000000000000000000000000008152600401610fdf90611e0e565b60405180910390fd5b610ff48260008361114f565b60008060008473ffffffffffffffffffffffffffffffffffffffff1673ffffffffffffffffffffffffffffffffffffffff1681526020019081526020016000205490508181101561107a576040517f08c379a000000000000000000000000000000000000000000000000000000000815260040161107190611ea0565b60405180910390fd5b8181036000808573ffffffffffffffffffffffffffffffffffffffff1673ffffffffffffffffffffffffffffffffffffffff1681526020019081526020016000208190555081600260008282546110d19190611ec0565b92505081905550600073ffffffffffffffffffffffffffffffffffffffff168373ffffffffffffffffffffffffffffffffffffffff167fddf252ad1be2c89b69c2b068fc378daa952ba7f163c4a11628f55a4df523b3ef84604051611136919061145c565b60405180910390a361114a8360008461120f565b505050565b600073ffffffffffffffffffffffffffffffffffffffff168373ffffffffffffffffffffffffffffffffffffffff16141580156111b857504173ffffffffffffffffffffffffffffffffffffffff168273ffffffffffffffffffffffffffffffffffffffff1614155b80156111f15750600073ffffffffffffffffffffffffffffffffffffffff164173ffffffffffffffffffffffffffffffffffffffff1614155b156111ff576111fe611214565b5b61120a838383610a98565b505050565b505050565b61122041600654611222565b565b61122a610550565b81611233610456565b61123d91906118b8565b111561127e576040517f08c379a0000000000000000000000000000000000000000000000000000000008152600401611275906119ca565b60405180910390fd5b61128882826108cf565b5050565b600081519050919050565b600082825260208201905092915050565b60005b838110156112c65780820151818401526020810190506112ab565b60008484015250505050565b6000601f19601f8301169050919050565b60006112ee8261128c565b6112f88185611297565b93506113088185602086016112a8565b611311816112d2565b840191505092915050565b6000602082019050818103600083015261133681846112e3565b905092915050565b600080fd5b600073ffffffffffffffffffffffffffffffffffffffff82169050919050565b600061136e82611343565b9050919050565b61137e81611363565b811461138957600080fd5b50565b60008135905061139b81611375565b92915050565b6000819050919050565b6113b4816113a1565b81146113bf57600080fd5b50565b6000813590506113d1816113ab565b92915050565b600080604083850312156113ee576113ed61133e565b5b60006113fc8582860161138c565b925050602061140d858286016113c2565b9150509250929050565b60008115159050919050565b61142c81611417565b82525050565b60006020820190506114476000830184611423565b92915050565b611456816113a1565b82525050565b6000602082019050611471600083018461144d565b92915050565b60006020828403121561148d5761148c61133e565b5b600061149b848285016113c2565b91505092915050565b6000806000606084860312156114bd576114bc61133e565b5b60006114cb8682870161138c565b93505060206114dc8682870161138c565b92505060406114ed868287016113c2565b9150509250925092565b600060ff82169050919050565b61150d816114f7565b82525050565b60006020820190506115286000830184611504565b92915050565b6000602082840312156115445761154361133e565b5b60006115528482850161138c565b91505092915050565b600061156682611343565b9050919050565b6115768161155b565b82525050565b6000602082019050611591600083018461156d565b92915050565b600080604083850312156115ae576115ad61133e565b5b60006115bc8582860161138c565b92505060206115cd8582860161138c565b9150509250929050565b7f4e487b7100000000000000000000000000000000000000000000000000000000600052602260045260246000fd5b6000600282049050600182168061161e57607f821691505b602082108103611631576116306115d7565b5b50919050565b7f4f6e6c7920746865206f776e65722063616e2063616c6c20746869732066756e60008201527f6374696f6e000000000000000000000000000000000000000000000000000000602082015250565b6000611693602583611297565b915061169e82611637565b604082019050919050565b600060208201905081810360008301526116c281611686565b9050919050565b7f4e487b7100000000000000000000000000000000000000000000000000000000600052601160045260246000fd5b60008160011c9050919050565b6000808291508390505b600185111561174f5780860481111561172b5761172a6116c9565b5b600185161561173a5780820291505b8081029050611748856116f8565b945061170f565b94509492505050565b6000826117685760019050611824565b816117765760009050611824565b816001811461178c5760028114611796576117c5565b6001915050611824565b60ff8411156117a8576117a76116c9565b5b8360020a9150848211156117bf576117be6116c9565b5b50611824565b5060208310610133831016604e8410600b84101617156117fa5782820a9050838111156117f5576117f46116c9565b5b611824565b6118078484846001611705565b9250905081840481111561181e5761181d6116c9565b5b81810290505b9392505050565b6000611836826113a1565b9150611841836114f7565b925061186e7fffffffffffffffffffffffffffffffffffffffffffffffffffffffffffffffff8484611758565b905092915050565b6000611881826113a1565b915061188c836113a1565b925082820261189a816113a1565b915082820484148315176118b1576118b06116c9565b5b5092915050565b60006118c3826113a1565b91506118ce836113a1565b92508282019050808211156118e6576118e56116c9565b5b92915050565b7f45524332303a2064656372656173656420616c6c6f77616e63652062656c6f7760008201527f207a65726f000000000000000000000000000000000000000000000000000000602082015250565b6000611948602583611297565b9150611953826118ec565b604082019050919050565b600060208201905081810360008301526119778161193b565b9050919050565b7f45524332304361707065643a2063617020657863656564656400000000000000600082015250565b60006119b4601983611297565b91506119bf8261197e565b602082019050919050565b600060208201905081810360008301526119e3816119a7565b9050919050565b7f45524332303a206d696e7420746f20746865207a65726f206164647265737300600082015250565b6000611a20601f83611297565b9150611a2b826119ea565b602082019050919050565b60006020820190508181036000830152611a4f81611a13565b9050919050565b7f45524332303a20617070726f76652066726f6d20746865207a65726f2061646460008201527f7265737300000000000000000000000000000000000000000000000000000000602082015250565b6000611ab2602483611297565b9150611abd82611a56565b604082019050919050565b60006020820190508181036000830152611ae181611aa5565b9050919050565b7f45524332303a20617070726f766520746f20746865207a65726f20616464726560008201527f7373000000000000000000000000000000000000000000000000000000000000602082015250565b6000611b44602283611297565b9150611b4f82611ae8565b604082019050919050565b60006020820190508181036000830152611b7381611b37565b9050919050565b7f45524332303a20696e73756666696369656e7420616c6c6f77616e6365000000600082015250565b6000611bb0601d83611297565b9150611bbb82611b7a565b602082019050919050565b60006020820190508181036000830152611bdf81611ba3565b9050919050565b7f45524332303a207472616e736665722066726f6d20746865207a65726f20616460008201527f6472657373000000000000000000000000000000000000000000000000000000602082015250565b6000611c42602583611297565b9150611c4d82611be6565b604082019050919050565b60006020820190508181036000830152611c7181611c35565b9050919050565b7f45524332303a207472616e7366657220746f20746865207a65726f206164647260008201527f6573730000000000000000000000000000000000000000000000000000000000602082015250565b6000611cd4602383611297565b9150611cdf82611c78565b604082019050919050565b60006020820190508181036000830152611d0381611cc7565b9050919050565b7f45524332303a207472616e7366657220616d6f756e742065786365656473206260008201527f616c616e63650000000000000000000000000000000000000000000000000000602082015250565b6000611d66602683611297565b9150611d7182611d0a565b604082019050919050565b60006020820190508181036000830152611d9581611d59565b9050919050565b7f45524332303a206275726e2066726f6d20746865207a65726f2061646472657360008201527f7300000000000000000000000000000000000000000000000000000000000000602082015250565b6000611df8602183611297565b9150611e0382611d9c565b604082019050919050565b60006020820190508181036000830152611e2781611deb565b9050919050565b7f45524332303a206275726e20616d6f756e7420657863656564732062616c616e60008201527f6365000000000000000000000000000000000000000000000000000000000000602082015250565b6000611e8a602283611297565b9150611e9582611e2e565b604082019050919050565b60006020820190508181036000830152611eb981611e7d565b9050919050565b6000611ecb826113a1565b9150611ed6836113a1565b9250828203905081811115611eee57611eed6116c9565b5b9291505056fea2646970667358221220e59c09e02accb16bfafbcce6bc75056650254d128993316e6abf7d919eacf85e64736f6c63430008110033",
  "linkReferences": {},
  "deployedLinkReferences": {}
}