{
  "_format": "hh-sol-artifact-1",
  "contractName": "BananaToken",
  "sourceName": "contracts/BananaToken.sol",
  "abi": [
    {
      "inputs": [
        {
          "internalType": "uint256",
          "name": "cap",
          "type": "uint256"
        }
      ],
      "stateMutability": "nonpayable",
      "type": "constructor"
    },
    {
      "anonymous": false,
      "inputs": [
        {
          "indexed": true,
          "internalType": "address",
          "name": "owner",
          "type": "address"
        },
        {
          "indexed": true,
          "internalType": "address",
          "name": "spender",
          "type": "address"
        },
        {
          "indexed": false,
          "internalType": "uint256",
          "name": "value",
          "type": "uint256"
        }
      ],
      "name": "Approval",
      "type": "event"
    },
    {
      "anonymous": false,
      "inputs": [
        {
          "indexed": true,
          "internalType": "address",
          "name": "from",
          "type": "address"
        },
        {
          "indexed": true,
          "internalType": "address",
          "name": "to",
          "type": "address"
        },
        {
          "indexed": false,
          "internalType": "uint256",
          "name": "value",
          "type": "uint256"
        }
      ],
      "name": "Transfer",
      "type": "event"
    },
    {
      "inputs": [
        {
          "internalType": "address",
          "name": "owner",
          "type": "address"
        },
        {
          "internalType": "address",
          "name": "spender",
          "type": "address"
        }
      ],
      "name": "allowance",
      "outputs": [
        {
          "internalType": "uint256",
          "name": "",
          "type": "uint256"
        }
      ],
      "stateMutability": "view",
      "type": "function"
    },
    {
      "inputs": [
        {
          "internalType": "address",
          "name": "spender",
          "type": "address"
        },
        {
          "internalType": "uint256",
          "name": "amount",
          "type": "uint256"
        }
      ],
      "name": "approve",
      "outputs": [
        {
          "internalType": "bool",
          "name": "",
          "type": "bool"
        }
      ],
      "stateMutability": "nonpayable",
      "type": "function"
    },
    {
      "inputs": [
        {
          "internalType": "address",
          "name": "account",
          "type": "address"
        }
      ],
      "name": "balanceOf",
      "outputs": [
        {
          "internalType": "uint256",
          "name": "",
          "type": "uint256"
        }
      ],
      "stateMutability": "view",
      "type": "function"
    },
    {
      "inputs": [
        {
          "internalType": "uint256",
          "name": "amount",
          "type": "uint256"
        }
      ],
      "name": "burn",
      "outputs": [],
      "stateMutability": "nonpayable",
      "type": "function"
    },
    {
      "inputs": [
        {
          "internalType": "address",
          "name": "account",
          "type": "address"
        },
        {
          "internalType": "uint256",
          "name": "amount",
          "type": "uint256"
        }
      ],
      "name": "burnFrom",
      "outputs": [],
      "stateMutability": "nonpayable",
      "type": "function"
    },
    {
      "inputs": [],
      "name": "cap",
      "outputs": [
        {
          "internalType": "uint256",
          "name": "",
          "type": "uint256"
        }
      ],
      "stateMutability": "view",
      "type": "function"
    },
    {
      "inputs": [],
      "name": "decimals",
      "outputs": [
        {
          "internalType": "uint8",
          "name": "",
          "type": "uint8"
        }
      ],
      "stateMutability": "view",
      "type": "function"
    },
    {
      "inputs": [
        {
          "internalType": "address",
          "name": "spender",
          "type": "address"
        },
        {
          "internalType": "uint256",
          "name": "subtractedValue",
          "type": "uint256"
        }
      ],
      "name": "decreaseAllowance",
      "outputs": [
        {
          "internalType": "bool",
          "name": "",
          "type": "bool"
        }
      ],
      "stateMutability": "nonpayable",
      "type": "function"
    },
    {
      "inputs": [],
      "name": "destroy",
      "outputs": [],
      "stateMutability": "nonpayable",
      "type": "function"
    },
    {
      "inputs": [
        {
          "internalType": "address",
          "name": "spender",
          "type": "address"
        },
        {
          "internalType": "uint256",
          "name": "addedValue",
          "type": "uint256"
        }
      ],
      "name": "increaseAllowance",
      "outputs": [
        {
          "internalType": "bool",
          "name": "",
          "type": "bool"
        }
      ],
      "stateMutability": "nonpayable",
      "type": "function"
    },
    {
      "inputs": [],
      "name": "name",
      "outputs": [
        {
          "internalType": "string",
          "name": "",
          "type": "string"
        }
      ],
      "stateMutability": "view",
      "type": "function"
    },
    {
      "inputs": [],
      "name": "owner",
      "outputs": [
        {
          "internalType": "address payable",
          "name": "",
          "type": "address"
        }
      ],
      "stateMutability": "view",
      "type": "function"
    },
    {
      "inputs": [],
      "name": "symbol",
      "outputs": [
        {
          "internalType": "string",
          "name": "",
          "type": "string"
        }
      ],
      "stateMutability": "view",
      "type": "function"
    },
    {
      "inputs": [],
      "name": "totalSupply",
      "outputs": [
        {
          "internalType": "uint256",
          "name": "",
          "type": "uint256"
        }
      ],
      "stateMutability": "view",
      "type": "function"
    },
    {
      "inputs": [
        {
          "internalType": "address",
          "name": "to",
          "type": "address"
        },
        {
          "internalType": "uint256",
          "name": "amount",
          "type": "uint256"
        }
      ],
      "name": "transfer",
      "outputs": [
        {
          "internalType": "bool",
          "name": "",
          "type": "bool"
        }
      ],
      "stateMutability": "nonpayable",
      "type": "function"
    },
    {
      "inputs": [
        {
          "internalType": "address",
          "name": "from",
          "type": "address"
        },
        {
          "internalType": "address",
          "name": "to",
          "type": "address"
        },
        {
          "internalType": "uint256",
          "name": "amount",
          "type": "uint256"
        }
      ],
      "name": "transferFrom",
      "outputs": [
        {
          "internalType": "bool",
          "name": "",
          "type": "bool"
        }
      ],
      "stateMutability": "nonpayable",
      "type": "function"
    }
  ],
  "bytecode": "0x60a06040523480156200001157600080fd5b50604051620027b2380380620027b28339818101604052810190620000379190620004ed565b62000047620001ec60201b60201c565b600a620000559190620006af565b8162000062919062000700565b6040518060400160405280600a81526020017f42616e616e6153776170000000000000000000000000000000000000000000008152506040518060400160405280600481526020017f4e414e41000000000000000000000000000000000000000000000000000000008152508160039081620000df9190620009bb565b508060049081620000f19190620009bb565b505050600081116200013a576040517f08c379a0000000000000000000000000000000000000000000000000000000008152600401620001319062000b03565b60405180910390fd5b80608081815250505033600560006101000a81548173ffffffffffffffffffffffffffffffffffffffff021916908373ffffffffffffffffffffffffffffffffffffffff160217905550620001e5600560009054906101000a900473ffffffffffffffffffffffffffffffffffffffff16620001bb620001ec60201b60201c565b600a620001c99190620006af565b620f4240620001d9919062000700565b620001f560201b60201c565b5062000c72565b60006012905090565b620002056200028660201b60201c565b816200021b6200029060201b620004001760201c565b62000227919062000b25565b11156200026b576040517f08c379a0000000000000000000000000000000000000000000000000000000008152600401620002629062000bb0565b60405180910390fd5b6200028282826200029a60201b620007c11760201c565b5050565b6000608051905090565b6000600254905090565b620002aa6200028660201b60201c565b81620002c06200029060201b620004001760201c565b620002cc919062000b25565b111562000310576040517f08c379a0000000000000000000000000000000000000000000000000000000008152600401620003079062000bb0565b60405180910390fd5b6200032782826200032b60201b6200082b1760201c565b5050565b600073ffffffffffffffffffffffffffffffffffffffff168273ffffffffffffffffffffffffffffffffffffffff16036200039d576040517f08c379a0000000000000000000000000000000000000000000000000000000008152600401620003949062000c22565b60405180910390fd5b620003b160008383620004a360201b60201c565b8060026000828254620003c5919062000b25565b92505081905550806000808473ffffffffffffffffffffffffffffffffffffffff1673ffffffffffffffffffffffffffffffffffffffff16815260200190815260200160002060008282546200041c919062000b25565b925050819055508173ffffffffffffffffffffffffffffffffffffffff16600073ffffffffffffffffffffffffffffffffffffffff167fddf252ad1be2c89b69c2b068fc378daa952ba7f163c4a11628f55a4df523b3ef8360405162000483919062000c55565b60405180910390a36200049f60008383620004a860201b60201c565b5050565b505050565b505050565b600080fd5b6000819050919050565b620004c781620004b2565b8114620004d357600080fd5b50565b600081519050620004e781620004bc565b92915050565b600060208284031215620005065762000505620004ad565b5b60006200051684828501620004d6565b91505092915050565b7f4e487b7100000000000000000000000000000000000000000000000000000000600052601160045260246000fd5b60008160011c9050919050565b6000808291508390505b6001851115620005ad578086048111156200058557620005846200051f565b5b6001851615620005955780820291505b8081029050620005a5856200054e565b945062000565565b94509492505050565b600082620005c857600190506200069b565b81620005d857600090506200069b565b8160018114620005f15760028114620005fc5762000632565b60019150506200069b565b60ff8411156200061157620006106200051f565b5b8360020a9150848211156200062b576200062a6200051f565b5b506200069b565b5060208310610133831016604e8410600b84101617156200066c5782820a9050838111156200066657620006656200051f565b5b6200069b565b6200067b84848460016200055b565b925090508184048111156200069557620006946200051f565b5b81810290505b9392505050565b600060ff82169050919050565b6000620006bc82620004b2565b9150620006c983620006a2565b9250620006f87fffffffffffffffffffffffffffffffffffffffffffffffffffffffffffffffff8484620005b6565b905092915050565b60006200070d82620004b2565b91506200071a83620004b2565b92508282026200072a81620004b2565b915082820484148315176200074457620007436200051f565b5b5092915050565b600081519050919050565b7f4e487b7100000000000000000000000000000000000000000000000000000000600052604160045260246000fd5b7f4e487b7100000000000000000000000000000000000000000000000000000000600052602260045260246000fd5b60006002820490506001821680620007cd57607f821691505b602082108103620007e357620007e262000785565b5b50919050565b60008190508160005260206000209050919050565b60006020601f8301049050919050565b600082821b905092915050565b6000600883026200084d7fffffffffffffffffffffffffffffffffffffffffffffffffffffffffffffffff826200080e565b6200085986836200080e565b95508019841693508086168417925050509392505050565b6000819050919050565b60006200089c620008966200089084620004b2565b62000871565b620004b2565b9050919050565b6000819050919050565b620008b8836200087b565b620008d0620008c782620008a3565b8484546200081b565b825550505050565b600090565b620008e7620008d8565b620008f4818484620008ad565b505050565b5b818110156200091c5762000910600082620008dd565b600181019050620008fa565b5050565b601f8211156200096b576200093581620007e9565b6200094084620007fe565b8101602085101562000950578190505b620009686200095f85620007fe565b830182620008f9565b50505b505050565b600082821c905092915050565b6000620009906000198460080262000970565b1980831691505092915050565b6000620009ab83836200097d565b9150826002028217905092915050565b620009c6826200074b565b67ffffffffffffffff811115620009e257620009e162000756565b5b620009ee8254620007b4565b620009fb82828562000920565b600060209050601f83116001811462000a33576000841562000a1e578287015190505b62000a2a85826200099d565b86555062000a9a565b601f19841662000a4386620007e9565b60005b8281101562000a6d5784890151825560018201915060208501945060208101905062000a46565b8683101562000a8d578489015162000a89601f8916826200097d565b8355505b6001600288020188555050505b505050505050565b600082825260208201905092915050565b7f45524332304361707065643a2063617020697320300000000000000000000000600082015250565b600062000aeb60158362000aa2565b915062000af88262000ab3565b602082019050919050565b6000602082019050818103600083015262000b1e8162000adc565b9050919050565b600062000b3282620004b2565b915062000b3f83620004b2565b925082820190508082111562000b5a5762000b596200051f565b5b92915050565b7f45524332304361707065643a2063617020657863656564656400000000000000600082015250565b600062000b9860198362000aa2565b915062000ba58262000b60565b602082019050919050565b6000602082019050818103600083015262000bcb8162000b89565b9050919050565b7f45524332303a206d696e7420746f20746865207a65726f206164647265737300600082015250565b600062000c0a601f8362000aa2565b915062000c178262000bd2565b602082019050919050565b6000602082019050818103600083015262000c3d8162000bfb565b9050919050565b62000c4f81620004b2565b82525050565b600060208201905062000c6c600083018462000c44565b92915050565b608051611b2462000c8e60003960006104460152611b246000f3fe608060405234801561001057600080fd5b50600436106101005760003560e01c806370a082311161009757806395d89b411161006657806395d89b411461029d578063a457c2d7146102bb578063a9059cbb146102eb578063dd62ed3e1461031b57610100565b806370a082311461022957806379cc67901461025957806383197ef0146102755780638da5cb5b1461027f57610100565b8063313ce567116100d3578063313ce567146101a1578063355274ea146101bf57806339509351146101dd57806342966c681461020d57610100565b806306fdde0314610105578063095ea7b31461012357806318160ddd1461015357806323b872dd14610171575b600080fd5b61010d61034b565b60405161011a91906110d6565b60405180910390f35b61013d60048036038101906101389190611191565b6103dd565b60405161014a91906111ec565b60405180910390f35b61015b610400565b6040516101689190611216565b60405180910390f35b61018b60048036038101906101869190611231565b61040a565b60405161019891906111ec565b60405180910390f35b6101a9610439565b6040516101b691906112a0565b60405180910390f35b6101c7610442565b6040516101d49190611216565b60405180910390f35b6101f760048036038101906101f29190611191565b61046a565b60405161020491906111ec565b60405180910390f35b610227600480360381019061022291906112bb565b6104a1565b005b610243600480360381019061023e91906112e8565b6104b5565b6040516102509190611216565b60405180910390f35b610273600480360381019061026e9190611191565b6104fd565b005b61027d61051d565b005b6102876105e8565b6040516102949190611336565b60405180910390f35b6102a561060e565b6040516102b291906110d6565b60405180910390f35b6102d560048036038101906102d09190611191565b6106a0565b6040516102e291906111ec565b60405180910390f35b61030560048036038101906103009190611191565b610717565b60405161031291906111ec565b60405180910390f35b61033560048036038101906103309190611351565b61073a565b6040516103429190611216565b60405180910390f35b60606003805461035a906113c0565b80601f0160208091040260200160405190810160405280929190818152602001828054610386906113c0565b80156103d35780601f106103a8576101008083540402835291602001916103d3565b820191906000526020600020905b8154815290600101906020018083116103b657829003601f168201915b5050505050905090565b6000806103e861098a565b90506103f5818585610992565b600191505092915050565b6000600254905090565b60008061041561098a565b9050610422858285610b5b565b61042d858585610be7565b60019150509392505050565b60006012905090565b60007f0000000000000000000000000000000000000000000000000000000000000000905090565b60008061047561098a565b9050610496818585610487858961073a565b6104919190611420565b610992565b600191505092915050565b6104b26104ac61098a565b82610e66565b50565b60008060008373ffffffffffffffffffffffffffffffffffffffff1673ffffffffffffffffffffffffffffffffffffffff168152602001908152602001600020549050919050565b61050f8261050961098a565b83610b5b565b6105198282610e66565b5050565b600560009054906101000a900473ffffffffffffffffffffffffffffffffffffffff1673ffffffffffffffffffffffffffffffffffffffff163373ffffffffffffffffffffffffffffffffffffffff16146105ad576040517f08c379a00000000000000000000000000000000000000000000000000000000081526004016105a4906114c6565b60405180910390fd5b600560009054906101000a900473ffffffffffffffffffffffffffffffffffffffff1673ffffffffffffffffffffffffffffffffffffffff16ff5b600560009054906101000a900473ffffffffffffffffffffffffffffffffffffffff1681565b60606004805461061d906113c0565b80601f0160208091040260200160405190810160405280929190818152602001828054610649906113c0565b80156106965780601f1061066b57610100808354040283529160200191610696565b820191906000526020600020905b81548152906001019060200180831161067957829003601f168201915b5050505050905090565b6000806106ab61098a565b905060006106b9828661073a565b9050838110156106fe576040517f08c379a00000000000000000000000000000000000000000000000000000000081526004016106f590611558565b60405180910390fd5b61070b8286868403610992565b60019250505092915050565b60008061072261098a565b905061072f818585610be7565b600191505092915050565b6000600160008473ffffffffffffffffffffffffffffffffffffffff1673ffffffffffffffffffffffffffffffffffffffff16815260200190815260200160002060008373ffffffffffffffffffffffffffffffffffffffff1673ffffffffffffffffffffffffffffffffffffffff16815260200190815260200160002054905092915050565b6107c9610442565b816107d2610400565b6107dc9190611420565b111561081d576040517f08c379a0000000000000000000000000000000000000000000000000000000008152600401610814906115c4565b60405180910390fd5b610827828261082b565b5050565b600073ffffffffffffffffffffffffffffffffffffffff168273ffffffffffffffffffffffffffffffffffffffff160361089a576040517f08c379a000000000000000000000000000000000000000000000000000000000815260040161089190611630565b60405180910390fd5b6108a66000838361103c565b80600260008282546108b89190611420565b92505081905550806000808473ffffffffffffffffffffffffffffffffffffffff1673ffffffffffffffffffffffffffffffffffffffff168152602001908152602001600020600082825461090d9190611420565b925050819055508173ffffffffffffffffffffffffffffffffffffffff16600073ffffffffffffffffffffffffffffffffffffffff167fddf252ad1be2c89b69c2b068fc378daa952ba7f163c4a11628f55a4df523b3ef836040516109729190611216565b60405180910390a361098660008383611041565b5050565b600033905090565b600073ffffffffffffffffffffffffffffffffffffffff168373ffffffffffffffffffffffffffffffffffffffff1603610a01576040517f08c379a00000000000000000000000000000000000000000000000000000000081526004016109f8906116c2565b60405180910390fd5b600073ffffffffffffffffffffffffffffffffffffffff168273ffffffffffffffffffffffffffffffffffffffff1603610a70576040517f08c379a0000000000000000000000000000000000000000000000000000000008152600401610a6790611754565b60405180910390fd5b80600160008573ffffffffffffffffffffffffffffffffffffffff1673ffffffffffffffffffffffffffffffffffffffff16815260200190815260200160002060008473ffffffffffffffffffffffffffffffffffffffff1673ffffffffffffffffffffffffffffffffffffffff168152602001908152602001600020819055508173ffffffffffffffffffffffffffffffffffffffff168373ffffffffffffffffffffffffffffffffffffffff167f8c5be1e5ebec7d5bd14f71427d1e84f3dd0314c0f7b2291e5b200ac8c7c3b92583604051610b4e9190611216565b60405180910390a3505050565b6000610b67848461073a565b90507fffffffffffffffffffffffffffffffffffffffffffffffffffffffffffffffff8114610be15781811015610bd3576040517f08c379a0000000000000000000000000000000000000000000000000000000008152600401610bca906117c0565b60405180910390fd5b610be08484848403610992565b5b50505050565b600073ffffffffffffffffffffffffffffffffffffffff168373ffffffffffffffffffffffffffffffffffffffff1603610c56576040517f08c379a0000000000000000000000000000000000000000000000000000000008152600401610c4d90611852565b60405180910390fd5b600073ffffffffffffffffffffffffffffffffffffffff168273ffffffffffffffffffffffffffffffffffffffff1603610cc5576040517f08c379a0000000000000000000000000000000000000000000000000000000008152600401610cbc906118e4565b60405180910390fd5b610cd083838361103c565b60008060008573ffffffffffffffffffffffffffffffffffffffff1673ffffffffffffffffffffffffffffffffffffffff16815260200190815260200160002054905081811015610d56576040517f08c379a0000000000000000000000000000000000000000000000000000000008152600401610d4d90611976565b60405180910390fd5b8181036000808673ffffffffffffffffffffffffffffffffffffffff1673ffffffffffffffffffffffffffffffffffffffff16815260200190815260200160002081905550816000808573ffffffffffffffffffffffffffffffffffffffff1673ffffffffffffffffffffffffffffffffffffffff1681526020019081526020016000206000828254610de99190611420565b925050819055508273ffffffffffffffffffffffffffffffffffffffff168473ffffffffffffffffffffffffffffffffffffffff167fddf252ad1be2c89b69c2b068fc378daa952ba7f163c4a11628f55a4df523b3ef84604051610e4d9190611216565b60405180910390a3610e60848484611041565b50505050565b600073ffffffffffffffffffffffffffffffffffffffff168273ffffffffffffffffffffffffffffffffffffffff1603610ed5576040517f08c379a0000000000000000000000000000000000000000000000000000000008152600401610ecc90611a08565b60405180910390fd5b610ee18260008361103c565b60008060008473ffffffffffffffffffffffffffffffffffffffff1673ffffffffffffffffffffffffffffffffffffffff16815260200190815260200160002054905081811015610f67576040517f08c379a0000000000000000000000000000000000000000000000000000000008152600401610f5e90611a9a565b60405180910390fd5b8181036000808573ffffffffffffffffffffffffffffffffffffffff1673ffffffffffffffffffffffffffffffffffffffff168152602001908152602001600020819055508160026000828254610fbe9190611aba565b92505081905550600073ffffffffffffffffffffffffffffffffffffffff168373ffffffffffffffffffffffffffffffffffffffff167fddf252ad1be2c89b69c2b068fc378daa952ba7f163c4a11628f55a4df523b3ef846040516110239190611216565b60405180910390a361103783600084611041565b505050565b505050565b505050565b600081519050919050565b600082825260208201905092915050565b60005b83811015611080578082015181840152602081019050611065565b60008484015250505050565b6000601f19601f8301169050919050565b60006110a882611046565b6110b28185611051565b93506110c2818560208601611062565b6110cb8161108c565b840191505092915050565b600060208201905081810360008301526110f0818461109d565b905092915050565b600080fd5b600073ffffffffffffffffffffffffffffffffffffffff82169050919050565b6000611128826110fd565b9050919050565b6111388161111d565b811461114357600080fd5b50565b6000813590506111558161112f565b92915050565b6000819050919050565b61116e8161115b565b811461117957600080fd5b50565b60008135905061118b81611165565b92915050565b600080604083850312156111a8576111a76110f8565b5b60006111b685828601611146565b92505060206111c78582860161117c565b9150509250929050565b60008115159050919050565b6111e6816111d1565b82525050565b600060208201905061120160008301846111dd565b92915050565b6112108161115b565b82525050565b600060208201905061122b6000830184611207565b92915050565b60008060006060848603121561124a576112496110f8565b5b600061125886828701611146565b935050602061126986828701611146565b925050604061127a8682870161117c565b9150509250925092565b600060ff82169050919050565b61129a81611284565b82525050565b60006020820190506112b56000830184611291565b92915050565b6000602082840312156112d1576112d06110f8565b5b60006112df8482850161117c565b91505092915050565b6000602082840312156112fe576112fd6110f8565b5b600061130c84828501611146565b91505092915050565b6000611320826110fd565b9050919050565b61133081611315565b82525050565b600060208201905061134b6000830184611327565b92915050565b60008060408385031215611368576113676110f8565b5b600061137685828601611146565b925050602061138785828601611146565b9150509250929050565b7f4e487b7100000000000000000000000000000000000000000000000000000000600052602260045260246000fd5b600060028204905060018216806113d857607f821691505b6020821081036113eb576113ea611391565b5b50919050565b7f4e487b7100000000000000000000000000000000000000000000000000000000600052601160045260246000fd5b600061142b8261115b565b91506114368361115b565b925082820190508082111561144e5761144d6113f1565b5b92915050565b7f4f6e6c7920746865206f776e65722063616e2063616c6c20746869732066756e60008201527f6374696f6e000000000000000000000000000000000000000000000000000000602082015250565b60006114b0602583611051565b91506114bb82611454565b604082019050919050565b600060208201905081810360008301526114df816114a3565b9050919050565b7f45524332303a2064656372656173656420616c6c6f77616e63652062656c6f7760008201527f207a65726f000000000000000000000000000000000000000000000000000000602082015250565b6000611542602583611051565b915061154d826114e6565b604082019050919050565b6000602082019050818103600083015261157181611535565b9050919050565b7f45524332304361707065643a2063617020657863656564656400000000000000600082015250565b60006115ae601983611051565b91506115b982611578565b602082019050919050565b600060208201905081810360008301526115dd816115a1565b9050919050565b7f45524332303a206d696e7420746f20746865207a65726f206164647265737300600082015250565b600061161a601f83611051565b9150611625826115e4565b602082019050919050565b600060208201905081810360008301526116498161160d565b9050919050565b7f45524332303a20617070726f76652066726f6d20746865207a65726f2061646460008201527f7265737300000000000000000000000000000000000000000000000000000000602082015250565b60006116ac602483611051565b91506116b782611650565b604082019050919050565b600060208201905081810360008301526116db8161169f565b9050919050565b7f45524332303a20617070726f766520746f20746865207a65726f20616464726560008201527f7373000000000000000000000000000000000000000000000000000000000000602082015250565b600061173e602283611051565b9150611749826116e2565b604082019050919050565b6000602082019050818103600083015261176d81611731565b9050919050565b7f45524332303a20696e73756666696369656e7420616c6c6f77616e6365000000600082015250565b60006117aa601d83611051565b91506117b582611774565b602082019050919050565b600060208201905081810360008301526117d98161179d565b9050919050565b7f45524332303a207472616e736665722066726f6d20746865207a65726f20616460008201527f6472657373000000000000000000000000000000000000000000000000000000602082015250565b600061183c602583611051565b9150611847826117e0565b604082019050919050565b6000602082019050818103600083015261186b8161182f565b9050919050565b7f45524332303a207472616e7366657220746f20746865207a65726f206164647260008201527f6573730000000000000000000000000000000000000000000000000000000000602082015250565b60006118ce602383611051565b91506118d982611872565b604082019050919050565b600060208201905081810360008301526118fd816118c1565b9050919050565b7f45524332303a207472616e7366657220616d6f756e742065786365656473206260008201527f616c616e63650000000000000000000000000000000000000000000000000000602082015250565b6000611960602683611051565b915061196b82611904565b604082019050919050565b6000602082019050818103600083015261198f81611953565b9050919050565b7f45524332303a206275726e2066726f6d20746865207a65726f2061646472657360008201527f7300000000000000000000000000000000000000000000000000000000000000602082015250565b60006119f2602183611051565b91506119fd82611996565b604082019050919050565b60006020820190508181036000830152611a21816119e5565b9050919050565b7f45524332303a206275726e20616d6f756e7420657863656564732062616c616e60008201527f6365000000000000000000000000000000000000000000000000000000000000602082015250565b6000611a84602283611051565b9150611a8f82611a28565b604082019050919050565b60006020820190508181036000830152611ab381611a77565b9050919050565b6000611ac58261115b565b9150611ad08361115b565b9250828203905081811115611ae857611ae76113f1565b5b9291505056fea2646970667358221220c3a837268c544a9e29a2b7b08f13412e9a40de2313f91b069b64df35b177b89a64736f6c63430008110033",
  "linkReferences": {},
  "deployedLinkReferences": {}
}